S02B00006275696C642F73723565312F436F6E6669672F636F7265312F44656275672F66697265776172652E8F
S3150800000070740124010400080304000803040008AE
S315080000100304000803040008030400080304000896
S315080000200304000803040008030400080304000886
S31508000030030400080304000803040008F1A90008E3
S315080000400304000803040008030400080304000866
S315080000500304000803040008E13C0008613D0008A9
S31508000060F13D0008813E0008113F0008318700086D
S3150800007041870008518700086187000871870008D2
S315080000808187000891870008A1870008015B00089E
S31508000090515B000803040008030400080304000871
S315080000A001AC00082159000811AC000821AC000871
S315080000B0C1590008615A0008B15A0008030400082B
S315080000C0030400080304000803040008E19C000870
S315080000D0F19C0008216A0008D16A0008816B0008B3
S315080000E0A13F0008314200080304000831AC0008AB
S315080000F07159000841AC000851AC0008115A0008B3
S31508000100A15B0008F15B0008A1B10008019D000889
S31508000110119D0008030400080304000803040008EE
S31508000120B1870008C1870008D1870008E187000861
S31508000130F18700080188000811880008218800084E
S3150800014003040008030400080304000851A7000874
S3150800015071A7000891A70008B1A70008D1A7000851
S31508000160F1A7000811A8000821A800080304000840
S315080001700304000803040008030400080304000835
S315080001800304000803040008030400080304000825
S31508000190519700087197000891970008A1970008E1
S315080001A0C1970008E1970008F19700081198000820
S315080001B0319800084198000861980008819800085D
S315080001C02189000803040008030400080304000842
S315080001D003040008030400080304000803040008D5
S315080001E041A8000861A8000881A80008A1A800087D
S315080001F0C1A80008E1A8000801A9000811A900087B
S3150800020003040008030400080304000803040008A4
S315080002100304000803040008030400080304000894
S315080002200304000803040008030400080304000884
S315080002300304000803040008030400080304000874
S315080002400304000803040008030400080304000864
S315080002500304000803040008030400080304000854
S3150800026003040008218E0008318E0008418E00081C
S31508000270518E0008618E0008030400080304000874
S315080002800304000803040008030400080304000824
S315080002900304000803040008030400080304000814
S315080002A00304000803040008030400080304000804
S315080002B003040008030400080304000803040008F4
S315080002C003040008030400080304000803040008E4
S315080002D003040008030400080304000803040008D4
S315080002E003040008030400080304000803040008C4
S315080002F003040008030400080304000803040008B4
S3150800030000000000000000000000000000000000DF
S3150800031000000000000000000000000000000000CF
S3150800032000000000000000000000000000000000BF
S3150800033000000000000000000000000000000000AF
S31508000340000000000000000000000000000000009F
S31508000350000000000000000000000000000000008F
S31508000360000000000000000000000000000000007F
S31508000370000000000000000000000000000000006F
S31508000380000000000000000000000000000000005F
S31508000390000000000000000000000000000000004F
S315080003A0000000000000000000000000000000003F
S315080003B0000000000000000000000000000000002F
S315080003C0000000000000000000000000000000001F
S315080003D0000000000000000000000000000000000F
S315080003E000000000000000000000000000000000FF
S315080003F000000000000000000000000000000000EF
S30D080004001EE000F000F8FEE71B
S3150800044000200021444A454BE2E802019A42FBDBC0
S315080004504349444A00240025E1E802459142FBDB72
S31508000460414A002A08D041483D498B18F0E8024520
S31508000470E1E802459942F9DB00203D493D4A08601A
S3150800048048608860C860086148618861C861203131
S315080004909142F4DB384A002A08D0384834498B1888
S315080004A004680C60043004319942F9DB72B63448AA
S315080004B080F30888334880F309883348334908604D
S315080004C040F20000CCF200004EF63471CEF2000184
S315080004D00860BFF34F8FBFF36F8F40F20000C0F282
S315080004E0F0004EF68851CEF200010860BFF34F8F38
S315080004F0BFF36F8F0020E1EE100A4EF63C71CEF284
S3150800050000010860062080F31488BFF36F8F07F098
S31508000510B7FE07F0DDFE1E491E4A1F4B9A4204DA53
S315080005200868106004310432F8E707F0D9FE1B4C5E
S315080005301B4DAC4203DA216888470434F9E700F01A
S31508000540C7FB184C184DAC4203DA216888470434B7
S31508000550F9E71649084700000000002400000224B5
S3150800056000000000008000001C00000080740108E4
S315080005700000002000000120000000009C74010813
S3150800058070740124708401240100000808ED00E05D
S315080005909C74010800000024240E002408040008A6
S315080005A0080400080804000808040008F182000886
S315080005B07BB972B90029BEBF00204FF0004106E0A2
S315080005C008BF00281CBF6FF000414FF0FF3000F055
S315080005D0BFB9ADF1080C6DE904CE002909DB002B83
S315080005E01ADB00F04DF8DDF804E0DDE9022304B07B
S315080005F07047404261EB4101002B1BDB00F040F8DD
S31508000600DDF804E0DDE9022304B0404261EB410174
S31508000610524263EB43037047524263EB430300F0D5
S315080006202FF8DDF804E0DDE9022304B0404261EB6F
S3150800063041017047524263EB430300F021F8DDF8AD
S3150800064004E0DDE9022304B0524263EB430370473A
S3150800065053B94AB9002908BF00281CBF4FF0FF311B
S315080006604FF0FF3000F074B9ADF1080C6DE904CE17
S3150800067000F006F8DDF804E0DDE9022304B070476F
S315080006802DE9F047089D04468E46002B4DD18A4237
S31508000690944669D9B2FA82F252B101FA02F3C2F16A
S315080006A0200120FA01F10CFA02FC41EA030E9440FB
S315080006B04FEA1C48210CBEFBF8F61FFA8CF708FB1C
S315080006C016E341EA034306FB07F199420AD91CEBF4
S315080006D0030306F1FF3080F01F81994240F21C8126
S315080006E0023E63445B1AA4B2B3FBF8F008FB10336E
S315080006F044EA034400FB07F7A7420AD91CEB0404A3
S3150800070000F1FF3380F00A81A74240F20781644472
S31508000710023840EA0640E41B00261DB1D4400023F7
S31508000720C5E900433146BDE8F0878B4209D9002D5B
S3150800073000F0EF800026C5E9000130463146BDE8E5
S31508000740F087B3FA83F6002E4AD18B4202D382424F
S3150800075000F2F980841A61EB030301209E46002DFE
S31508000760E0D0C5E9004EDDE702B9FFDEB2FA82F253
S31508000770002A40F09280A1EB0C014FEA1C471FFAB1
S315080007808CFE0126200CB1FBF7F307FB131140EA98
S3150800079001410EFB03F0884208D91CEB010103F165
S315080007A0FF3802D2884200F2CB804346091AA4B227
S315080007B0B1FBF7F007FB101144EA01440EFB00FEFB
S315080007C0A64508D91CEB040400F1FF3102D2A64560
S315080007D000F2BB800846A4EB0E0440EA03409CE7FF
S315080007E0C6F12007B34022FA07FC4CEA030C20FAAC
S315080007F007F401FA06F31C43F9404FEA1C4900FACC
S3150800080006F3B1FBF9F8200C1FFA8CFE09FB181148
S3150800081040EA014108FB0EF0884202FA06F20BD9BB
S315080008201CEB010108F1FF3A80F08880884240F20B
S315080008308580A8F102086144091AA4B2B1FBF9F04F
S3150800084009FB101144EA014100FB0EFE8E4508D94A
S315080008501CEB010100F1FF346CD28E456AD90238CF
S31508000860614440EA0840A0FB0294A1EB0E01A142B4
S31508000870C846A64656D353D05DB1B3EB080261EB22
S315080008800E0101FA07F722FA06F3F1401F43C5E9FC
S31508000890007100263146BDE8F087C2F12003D84032
S315080008A00CFA02FC21FA03F3914001434FEA1C4774
S315080008B01FFA8CFEB3FBF7F007FB10360B0C43EA66
S315080008C0064300FB0EF69E4204FA02F408D91CEB16
S315080008D0030300F1FF382FD29E422DD90238634414
S315080008E09B1B89B2B3FBF7F607FB163341EA0341B4
S315080008F006FB0EF38B4208D91CEB010106F1FF3803
S3150800090016D28B4214D9023E6144C91A46EA0046F9
S3150800091038E72E46284605E70646E3E61846F8E68B
S315080009204B45A9D2B9EB020864EB0C0E0138A3E7D4
S315080009304646EAE7204694E74046D1E7D0467BE7B5
S31508000940023B614432E7304609E76444023842E72D
S31508000950704700BF00000000000000000000000013
S31508000960844641EA000313F003036DD1403A41D3AC
S3150800097051F8043B40F8043B51F8043B40F8043B6B
S3150800098051F8043B40F8043B51F8043B40F8043B5B
S3150800099051F8043B40F8043B51F8043B40F8043B4B
S315080009A051F8043B40F8043B51F8043B40F8043B3B
S315080009B051F8043B40F8043B51F8043B40F8043B2B
S315080009C051F8043B40F8043B51F8043B40F8043B1B
S315080009D051F8043B40F8043B51F8043B40F8043B0B
S315080009E051F8043B40F8043B51F8043B40F8043BFB
S315080009F0403ABDD2303211D351F8043B40F8043B9B
S31508000A0051F8043B40F8043B51F8043B40F8043BDA
S31508000A1051F8043B40F8043B103AEDD20C3205D3AA
S31508000A2051F8043B40F8043B043AF9D2043208D0A2
S31508000A30D2071CBF11F8013B00F8013B01D30B8814
S31508000A4003806046704700BF082A13D38B078DD0F2
S31508000A5010F003038AD0C3F10403D21ADB071CBFC4
S31508000A6011F8013B00F8013B80D331F8023B20F82E
S31508000A70023B7BE7043AD9D3013A11F8013B00F867
S31508000A80013BF9D20B7803704B7843708B788370EF
S31508000A9060467047000000000000000000000000EB
S31508000AA090F800F06DE9024520F007016FF0000CA0
S31508000AB010F0070491F820F040F049804FF0000448
S31508000AC06FF00700D1E9002391F840F000F1080023
S31508000AD082FA4CF2A4FA8CF283FA4CF3A2FA8CF35B
S31508000AE04BBBD1E9022382FA4CF200F10800A4FAC2
S31508000AF08CF283FA4CF3A2FA8CF3E3B9D1E9042316
S31508000B0082FA4CF200F10800A4FA8CF283FA4CF34C
S31508000B10A2FA8CF37BB9D1E9062301F1200182FA06
S31508000B204CF200F10800A4FA8CF283FA4CF3A2FA0C
S31508000B308CF3002BC6D0002A04BF04301A4612BA1A
S31508000B40B2FA82F2FDE8024500EBD2007047D1E91D
S31508000B50002304F00305C4F100004FEAC50514F0AC
S31508000B60040F91F840F00CFA05F562EA05021CBF7D
S31508000B7063EA050362464FF00004A9E70000000097
S31508000B8001F0FF01102A2BDB10F0070F08D010F830
S31508000B90013B013A8B422DD010F0070F42B3F6D134
S31508000BA0F0B441EA012141EA014122F007047FF04D
S31508000BB000070023F0E80256083C85EA010586EAA4
S31508000BC0010685FA47F5A3FA87F586FA47F6A5FAE0
S31508000BD087F68EB9EED1F0BC01F0FF0102F00702EC
S31508000BE032B110F8013B013A83EA010313B1F8D197
S31508000BF00020704701387047002D06BF3546033878
S31508000C00073815F0010F07D1013015F4807F02BFB0
S31508000C10013015F4C03F0130F0BC0138704700BF01
S31508000C2000BF704700000000000000000000000040
S31508000C3000B583B00346ADF80630BDF8063003F0BC
S31508000C400103002B01D007F05BFBBDF8063003F06B
S31508000C500203002B01D007F013FFBDF8063003F09E
S31508000C600403002B01D0FFF7DBFFBDF8063003F0C5
S31508000C701003002B01D00AF0A3FA00BF03B05DF8F9
S31508000C8004FB00BF00000000000000000000000098
S31508000C9000B595B00190009101F04AFC0346002B7F
S31508000CA007D002AB184601F05BFC02AB184601F010
S31508000CB0E7F9044B1B680133024A136000BF15B0FD
S31508000CC05DF804FB280E0024000000000000000068
S31508000CD008B5134805F034FD4FF4E121002000F073
S31508000CE0EFF901F015FC00F043FC01F0B9F9002317
S31508000CF00C4A6421032005F013F90B480CF058F947
S31508000D000A480CF055F90A480CF052F909480CF053
S31508000D104FF909480CF04CF9C82002F0E9FCFBE74A
S31508000D2000A3E111910C0008104901084049010887
S31508000D3070490108A0490108D849010800000000C7
S31508000D4084B003908DED020ACDED010A8DED001AEF
S31508000D50039B029A1A60039B019A5A60039B009AA6
S31508000D609A60039B4FF00002DA60039B4FF0000283
S31508000D701A61039B4FF000025A6100BF04B0704726
S31508000D8082B001908DED000A019B009ADA6000BFDF
S31508000D9002B07047000000000000000000000000DC
S31508000DA084B001908DED000A019B93ED037ADDED89
S31508000DB0007A77EE677ACDED037A019B93ED007A98
S31508000DC0019BD3ED047ADDED036A76EEE77A27EE2A
S31508000DD0277A019BD3ED016ADDED037A66EEA77AE1
S31508000DE037EE277A019BD3ED026A019BD3ED047A8D
S31508000DF077EEA77A9DED036A36EE676A019BD3ED17
S31508000E00057A76EE277A66EEA77A77EE277ACDED1B
S31508000E10027A019B1A69019B5A61019B039A1A611E
S31508000E20029B07EE903AB0EE670A04B0704700BF1F
S31508000E3008B5044B044A0121022002F0D1FD00BF87
S31508000E4008BD00BF6F1012006E10020000000000FF
S31508000E5000B583B00DF106031946022002F0F8FC2E
S31508000E60022002F07DFDBDF90630184603B05DF894
S31508000E7004FB00BF000000000000000000000000A6
S31508000E8000B583B0019000910199002004F028FB79
S31508000E90002143F2840004F0FBF80021144804F012
S31508000EA0F7F80021134804F0F3F80021124804F07B
S31508000EB0EFF8009A0021012005F0A2FA009A002115
S31508000EC0072005F09DFA00210C4805F029F90021B4
S31508000ED00B4805F025F900210A4805F021F90021FB
S31508000EE0094805F01DF900BF03B05DF804FB00BF13
S31508000EF0823010006D30300068305000004101002B
S31508000F0002411100044121000511070000000000FC
S31508000F1000B585B003460A468DF807301346ADF886
S31508000F200430BDF8043042F21072934203D942F2FB
S31508000F301073ADF80430BDF8043042F2107202FBAB
S31508000F4003F33F4AA2FB03235B0BADF80E309DF873
S31508000F5007300A2B6FD801A252F823F0890F000830
S31508000F60970F0008A50F0008B30F0008C10F000867
S31508000F70D10F0008DF0F0008ED0F0008FB0F00086F
S31508000F800F10000823100008BDF80E3019462D482A
S31508000F9004F0EEFF50E0BDF80E3019462A4804F07A
S31508000FA0E7FF49E0BDF80E301946284804F0E0FF8F
S31508000FB042E0BDF80E301946254804F0D9FF3BE05B
S31508000FC0BDF80E30194643F2840003F011FF33E0F2
S31508000FD0BDF80E3019461F4803F00AFF2CE0BDF88D
S31508000FE00E3019461C4803F003FF25E0BDF80E3005
S31508000FF019461A4803F0FCFE1EE0BDF80E2042F220
S3150800100010739B1A1946164804F0B2FF14E0BDF88F
S315080010100E2042F210739B1A1946124804F0A8FFD4
S315080010200AE0BDF80E2042F210739B1A19460E48C4
S3150800103004F09EFF00E000BF00BF05B05DF804FBAA
S315080010405917B7D10041010002411100044121009E
S3150800105005110700823010006D30300068305000EE
S31508001060CE200400CF201400E02024000000000059
S3150800107000B585B001900091009B0393019B03F096
S315080010800103002B12D000238DF80B30039B1B782D
S315080010900DF10B021146184605F082FE039B0C3330
S315080010A09DF80B201146184601F0EAFD00BF05B071
S315080010B05DF804FB000000000000000000000000CE
S315080010C000B585B0034600918DF807309DF80730C6
S315080010D0012B32D89DF8072013469B001344DB00EA
S315080010E0194A13440393039B93F82630002B26D101
S315080010F0039B03F10C00039B1A6A039B9B8C01213B
S3150800110002F0C6F8039B1878039B5A68039B9B68F2
S31508001110009906F02DF8039B1B78039A0B4918468D
S3150800112005F0A6FE039B1B780421184605F018FF58
S31508001130039B012283F8262002E000BF00E000BFDF
S3150800114005B05DF804FB00BF00000024711000081C
S3150800115086B08DED050ACDED040A8DED031ACDEDA9
S31508001160021A8DED012A9DED057ADDED047A37EE3A
S31508001170677ADDED016ADDED027A76EEE77A67EEEB
S31508001180276A9DED037ADDED047A77EE677A86EEB7
S31508001190A77ADDED027A77EE277AB0EE670A06B00F
S315080011A0704700BF000000000000000000000000BB
S315080011B008B5322144F26820FFF762FE00221021AA
S315080011C0822003F00DFD9FED050A00F009F80021C5
S315080011D0002000F075F800BF08BD00BF0000000041
S315080011E000B587B08DED010ADDED017AB3EE0E7A12
S315080011F0F4EEC77AF1EE10FA01DD2A4B0193DDED24
S31508001200017ABBEE0E7AF4EEC77AF1EE10FA01D542
S31508001210254B0193DDED017AF5EEC07AF1EE10FA71
S3150800122014DB9FED222ADFED221AB3EE0E1ADFED4C
S31508001230210A9DED010AFFF78BFFF0EE407AFCEEDE
S31508001240E77A17EE903AADF8163013E09FED182AB4
S31508001250DFED191A9FED171AFBEE0E0A9DED010A2E
S31508001260FFF776FFF0EE407AFCEEE77A17EE903A53
S31508001270ADF8163044F620630493BDF8163042F2F2
S31508001280107203FB02F2049BB2FBF3F3ADF80E30C7
S31508001290BDF80E3019460020FFF73AFE00BF07B02A
S315080012A05DF804FB0000F0410000F0C10080ED4449
S315080012B000C0C14400000000000096440000000081
S315080012C000B585B003460A46ADF806301346ADF8B4
S315080012D00430BDF90620BDF904301344002B00DAAA
S315080012E001335B10ADF80E30BDF90E30642B02DD0C
S315080012F06423ADF80E30BDF90E3013F1640F03DA2E
S315080013004FF69C73ADF80E30BDF90E30002B17DB87
S315080013100121822003F0BCFBBDF80E301A4692006C
S3150800132013441A4691001A460B4613449B00ADF81F
S315080013300A30BDF80A3019460420FFF7E9FD1AE01D
S315080013400021822003F0A4FBBDF90E30002BB8BFA4
S315080013505B429BB21A46920013441A4691001A46FB
S315080013600B4613449B00ADF80C30BDF80C301946FB
S315080013700420FFF7CDFD00BF05B05DF804FB00BFF4
S3150800138000B58DB007900691FFF762FD0346ADF8EC
S315080013902E30BDF82E305B429BB2ADF82E30BDF92B
S315080013A02E3007EE903AB8EEE77A634BD3ED007A23
S315080013B067EE277A614BC3ED007A604BD3ED007A6E
S315080013C0B0EE670A5E48FFF7EBFC8DED0A0A5D4B47
S315080013D0D3ED007A9FED5C7AF4EEC77AF1EE10FA57
S315080013E0ACBF01230023DBB283F00103DBB2002B81
S315080013F00ED1DDED0A7AF5EEC07AF1EE10FACCBF21
S3150800140001230023DBB283F00103DBB2002B2AD0D1
S315080014104C4BD3ED007A9FED4D7AF4EEC77AF1EE98
S3150800142010FA94BF01230023DBB283F00103DBB279
S31508001430002B0ED1DDED0A7AF5EEC07AF1EE10FA40
S315080014404CBF01230023DBB283F00103DBB2002B80
S3150800145009D03C4B93ED007ADDED0A7A77EE277AD0
S31508001460384BC3ED007A374BD3ED007A9FED367AC9
S31508001470F4EEC77AF1EE10FA03DD324B344A1A60FD
S315080014800CE0304BD3ED007A9FED307AF4EEC77A54
S31508001490F1EE10FA02D52B4B2E4A1A60294BD3EDE2
S315080014A0007AFDEEE77A17EE903A1BB2254AD2ED9E
S315080014B0007AFDEEE77A17EE902A12B21146184620
S315080014C0FFF7FEFE244B1B680133234A1360224BA9
S315080014D01B68092B2BDD204B00221A601F4B93ED4E
S315080014E0007A164BD3ED007A77EE677ACDED097A56
S315080014F01A4BD3ED007AB7EEE74A104BD3ED007AD4
S31508001500B7EEE77ADDED096AB7EEE66A0D4BD3ED7D
S31508001510005AFDEEE55A15EE903A04938DED026BEE
S315080015208DED007B53EC142B0D480BF0D9FC00BF56
S315080015300DB05DF804FB00BF5013002444130024CB
S315080015402C1300244C1300240000C8420000C8C213
S315080015500000C8420000C8C25413002448130024DF
S31508001560104A01080000000000000000000000000A
S3150800157000B587B0FFF75CFCFFF71AFE1B4B059317
S315080015804FF08B430493DDED047A9FED197A67EEED
S31508001590877ACDED037ADDED056A9DED037AC6EE11
S315080015A0877ACDED027A134B0193DDED026A9DED44
S315080015B0017AC6EE877A104BC3ED007A9FED0F1AB3
S315080015C0DFED0F0A9FED0F0A0F48FFF7B9FB9FEDF6
S315080015D00F0A00F025F800230D4A0A21092004F015
S315080015E09FFC00BF07B05DF804FB00BFAAF4B44136
S315080015F0355E82400AD7233C50130024CDCC4C3F9D
S315080016009A99193ECDCCCC3E2C130024000000003C
S315080016108113000800000000000000000000000020
S3150800162000B583B08DED010A074A019B1360064B8E
S31508001630D3ED007AB0EE670A0448FFF7A1FB00BFB6
S3150800164003B05DF804FB00BF481300242C130024E4
S31508001650034B1B6807EE903AB0EE670A704700BF67
S3150800166044130024000000000000000000000000F1
S3150800167000B52DED048B95B08DED060B8DED041B95
S315080016808DED022B8DED003B51A3D3E90023CDE967
S3150800169012239DED067B9FED4A6B27EE066B9FEDA9
S315080016A04A5B86EE057B8DED107B9DED027B9FEDFB
S315080016B0446B27EE066B9FED445B86EE057B8DED4E
S315080016C00E7B9DED106B9DED0E7B36EE477B8DED0B
S315080016D00C7B9DED047B9FED3A6B27EE067B9FED19
S315080016E03A5B87EE056B9DED007B9FED355B27EE3C
S315080016F0055B9FED354B85EE047B36EE477B8DED1E
S315080017000A7B9DED0C7BB0EE005B87EE056BB0EEB9
S31508001710460B0AF08DF8B0EE407BB0EE001BB0EE3B
S31508001720470B09F075FDB0EE409B9DED100B0AF0D6
S315080017303FF8B0EE408B9DED0E0B0AF039F8B0EE8F
S31508001740407B28EE078B9DED0A7BB0EE005B87EEAB
S31508001750056BB0EE460B0AF06BF8B0EE407BB0EEC8
S31508001760001BB0EE470B09F053FDB0EE407B28EEA8
S31508001770077B39EE077BB0EE470B0AF0D1F8B0EEDF
S31508001780407BB0EE470B0AF093F8B0EE407B37EE9D
S31508001790077B8DED087B9DED086B9DED127B26EE94
S315080017A0077B8DED087BDDE9082343EC172BB0EEAC
S315080017B0470B15B0BDEC048B5DF804FBAFF3008056
S315080017C0282D4454FB210940000000000080664093
S315080017D000000040A6545841000000000000000028
S315080017E000B52DED048B97B08DED060B8DED041B22
S315080017F08DED022B8DED003B9DED067B9FED4E6B2F
S3150800180027EE066B9FED4E5B86EE057B8DED147B12
S315080018109DED047B9FED486B27EE066B9FED485BBD
S3150800182086EE057B8DED127B9DED027B9FED426B6F
S3150800183027EE066B9FED425B86EE057B8DED107BF2
S315080018409DED007B9FED3C6B27EE066B9FED3C5BA9
S3150800185086EE057B8DED0E7B9DED0E6B9DED127B69
S3150800186036EE477BB0EE470B09F0E2FFB0EE408B51
S315080018709DED100B09F09CFFB0EE407B28EE077B30
S315080018808DED0C7B9DED140B09F092FFB0EE408BAD
S315080018909DED100B09F0CCFFB0EE407B28EE078BD0
S315080018A09DED140B09F0C4FFB0EE409B9DED100BA7
S315080018B009F07EFFB0EE407B29EE079B9DED0E6B8F
S315080018C09DED127B36EE477BB0EE470B09F070FFB5
S315080018D0B0EE407B29EE077B38EE477B8DED0A7B21
S315080018E09DED0A1B9DED0C0B0AF012F8B0EE407B3D
S315080018F09FED136B27EE066B9FED0F5B86EE057B60
S315080019008DED087B9DED087BB5EEC07BF1EE10FAF8
S3150800191002DB9DED087B05E09DED087B9FED0A6BDC
S3150800192037EE067BB0EE470B17B0BDEC048B5DF8BF
S3150800193004FB00BFAFF30080282D4454FB21094067
S31508001940000000000080664000000000008076402D
S3150800195010B582B0264B1B78002B46D1254B0022AA
S315080019601A70254B01221A60244A254B104619463F
S3150800197048231A46FEF7F4FF4FF4887200212148DF
S315080019800BF056FA0023019328E01D49019A1346E5
S31508001990DB001344DB000B44203393ED007B18492E
S315080019A0019A1346DB001344DB000B44183393ED0E
S315080019B0006B144A019B1B01D418B0EE461BB0EE0F
S315080019C0470B00F025F8B0EE406BB0EE417B84ED96
S315080019D0006B84ED027B019B01330193019B102B65
S315080019E0D3D9034B01221A7000E000BF02B010BD24
S315080019F0B0140024B11400245000002468140024F4
S31508001A00D04D010858130024000000000000000013
S31508001A1010B596B08DED060B8DED041B4FF0000248
S31508001A204FF00003CDE908234FF000024FF0000302
S31508001A30CDE90A23384B1B7883F00103DBB2002B70
S31508001A4005D00CAC08AB0FCB84E80F004CE0334B49
S31508001A5093ED067B314B93ED086B9DED063B9DEDB3
S31508001A60042BB0EE461BB0EE470BFFF701FE8DEDDB
S31508001A70140B2A4B93ED067B284B93ED086B9DEDD3
S31508001A80063B9DED042BB0EE461BB0EE470BFFF769
S31508001A90A7FE8DED120B9FED1C6B9DED127B36EEAE
S31508001AA0477B9FED1B6B27EE067B8DED107B9DED2F
S31508001AB0100B09F07DFEB0EE406B9DED147B26EE13
S31508001AC0077B8DED087B9DED100B09F0B1FEB0EE9E
S31508001AD0406B9DED147B26EE077B8DED0A7B0CACE7
S31508001AE008AB0FCB84E80F00DDE90C01DDE90E2316
S31508001AF041EC160B43EC172BB0EE460BB0EE471B2A
S31508001B0016B010BDAFF300800000000000805640FC
S31508001B10916B50A246DF913FB0140024681400244C
S31508001B2010B5A4B0B0EE406BB0EE417B8DED006B06
S31508001B308DED027B744B1B7883F00103DBB2002B1F
S31508001B4004D1724B1B78DBB2002B01D00023D1E005
S31508001B506F4B1B68013B6F4A1B01134408AC0FCB44
S31508001B6084E80F006A4B1B686A4A1B01134404ACDD
S31508001B700FCB84E80F0000238DF88F309DED046BA2
S31508001B809DED087B36EE477B8DED207B9DED066B44
S31508001B909DED0A7B36EE477B8DED1E7B9DED006B3A
S31508001BA09DED087B36EE477B8DED1C7B9DED026B2C
S31508001BB09DED0A7B36EE477B8DED1A7B9DED207BEE
S31508001BC027EE076B9DED1E7B27EE077B36EE077B20
S31508001BD08DED187B9DED187B9FED496BB4EEC67BAA
S31508001BE0F1EE10FA18D59DED1C7B27EE076B9DEDDF
S31508001BF01A7B27EE077B36EE077B8DED127B9DED74
S31508001C00127BB5EE006BB4EEC67BF1EE10FA27D563
S31508001C1001238DF88F3023E09DED1C6B9DED207B15
S31508001C2026EE076B9DED1A5B9DED1E7B25EE077B69
S31508001C3036EE077B8DED167B9DED165B9DED186BDD
S31508001C4085EE067B8DED147B9DED147BB7EE006B60
S31508001C50B4EEC67BF1EE10FA02DD01238DF88F3063
S31508001C609DF88F3083F00103DBB2002B2BD09DED5E
S31508001C70046B9DED007B36EE477B8DED107B9DED6D
S31508001C80066B9DED027B36EE477B8DED0E7B9DED5B
S31508001C90107B27EE076B9DED0E7B27EE077B36EE56
S31508001CA0077BB0EE470B09F03BFE8DED0C0B9DED67
S31508001CB00C7BB6EE006BB4EEC67BF1EE10FA02D5DD
S31508001CC001238DF88F309DF88F30002B11D0104BE3
S31508001CD01B68102B06D10D4B01221A700E480BF00B
S31508001CE067F904E00A4B1B680133094A13600123AC
S31508001CF000E00023184624B010BD00BFAFF30080F3
S31508001D008DEDB5A0F7C6B03EB0140024B11400247A
S31508001D105000002458130024504A0108000000000F
S31508001D2010B48FB0194B1B7883F00103DBB2002B7C
S31508001D300CD04FF000024FF00003CDE908234FF016
S31508001D4000024FF00003CDE90A230FE0104B1B6891
S31508001D500D930D9B102B01DD10230D930D4A0D9B42
S31508001D601B01134408AC0FCB84E80F00DDE908011A
S31508001D70DDE90A2341EC160B43EC172BB0EE460BB4
S31508001D80B0EE471B0FB05DF8044B7047B014002443
S31508001D905000002458130024000000000000000032
S31508001DA010B48FB01A4B1B7883F00103DBB2002BFB
S31508001DB00CD04FF000024FF00003CDE908234FF096
S31508001DC000024FF00003CDE90A2310E0114B1B680F
S31508001DD0013B0D930D9B002B01DA00230D930E4A50
S31508001DE00D9B1B01134408AC0FCB84E80F00DDE9FB
S31508001DF00801DDE90A2341EC160B43EC172BB0EE7C
S31508001E00460BB0EE471B0FB05DF8044B704700BF9A
S31508001E10B0140024500000245813002400000000C9
S31508001E20014B1B681846704750000024000000004C
S31508001E30024B1B78DBB21846704700BFB11400246A
S31508001E4000B5A3B0B0EE457B8DED016A00908DED2F
S31508001E500A0B8DED0C1B8DED062B8DED083B8DEDDC
S31508001E60024B8DED047B9DED026B9DED067B36EEF8
S31508001E70477B8DED127B9DED046B9DED087B36EE61
S31508001E80477B8DED147B9DED0A6B9DED067B36EE4B
S31508001E90477B8DED0E7B9DED0C6B9DED087B36EE3D
S31508001EA0477B8DED107B9DED126B9DED127B26EE2B
S31508001EB0076B9DED145B9DED147B25EE077B36EED7
S31508001EC0077B8DED207B9DED0E6B9DED127B26EE3F
S31508001ED0076B9DED105B9DED147B25EE077B36EEBB
S31508001EE0077B37EE077B8DED1E7B9DED0E6B9DED1B
S31508001EF00E7B26EE076B9DED105B9DED107B25EEA8
S31508001F00077B36EE076BDDED017A67EEA77AB7EE4B
S31508001F10E77A36EE477B8DED1C7B9DED1E7B27EE23
S31508001F20076B9DED207BB1EE005B27EE055B9DED13
S31508001F301C7B25EE077B36EE477B8DED1A7B9DEDE8
S31508001F401A7BB5EEC07BF1EE10FA01D500237CE0D2
S31508001F509DED1A0B09F0E4FC8DED1A0B9DED1A6B3D
S31508001F609DED1E7B36EE475B9DED207B37EE076BBE
S31508001F7085EE067B8DED187B9DED1E7BB1EE476BDE
S31508001F809DED1A7B36EE475B9DED207B37EE076BA2
S31508001F9085EE067B8DED167B9DED187BB5EEC07B39
S31508001FA0F1EE10FA24DB9DED187BB7EE006BB4EE6C
S31508001FB0C67BF1EE10FA1BD89DED066B9DED125B04
S31508001FC09DED187B25EE077B36EE077B009B83EDA0
S31508001FD0007B9DED086B9DED145B9DED187B25EE52
S31508001FE0077B36EE077B009B83ED027B01232CE003
S31508001FF09DED167BB5EEC07BF1EE10FA24DB9DED68
S31508002000167BB7EE006BB4EEC67BF1EE10FA1BD862
S315080020109DED066B9DED125B9DED167B25EE077B10
S3150800202036EE077B009B83ED007B9DED086B9DEDEF
S31508002030145B9DED167B25EE077B36EE077B009B32
S3150800204083ED027B012300E00023184623B05DF8E8
S3150800205004FB00BF000000000000000000000000B4
S3150800206008B5FFF775FC034B4FF000021A6000BF76
S3150800207008BD00BFB41400240000000000000000E2
S3150800208000B52DED028BADB00590FFF7D1FE0346E6
S31508002090002B08D09FEDA60AFFF7C2FA9FEDA40A07
S315080020A0FFF79EF807E2059B1B7A002B08D19FEDE8
S315080020B0A00AFFF7B5FA9FED9E0AFFF791F8FAE135
S315080020C0059B93ED087B059B93ED066BB0EE461BCF
S315080020D0B0EE470BFFF79CFCB0EE406BB0EE417BD1
S315080020E08DED126B8DED147B9DED126B9DED147BC2
S315080020F0B0EE460BB0EE471BFFF712FDFFF750FE9A
S31508002100B0EE406BB0EE417B8DED0E6B8DED107B26
S31508002110FFF706FEB0EE406BB0EE417B8DED0A6B25
S315080021208DED0C7BFFF794FAB0EE407ADFED816A0D
S31508002130C7EE267ACDED237ADDED237A9FED7C7AFC
S3150800214067EE877A9FED7C7A77EE877ACDED2B7AE4
S31508002150DDED2B7AB7EE007AF4EEC77AF1EE10FAD7
S3150800216003DD4FF07E532B930BE0DDED2B7AB5EEB6
S31508002170007AF4EEC77AF1EE10FA02D54FF07A53E8
S315080021802B9306AB9DED0A4B9DED0C5B9DED0E2B3F
S315080021909DED103B9DED121B9DED147B18469DEDA4
S315080021A02B6AB0EE410BB0EE471BFFF749FE03461C
S315080021B0002B00F095804FF000032A93059B93F8B7
S315080021C03430012B03D1059B9B6B2A9302E0059BB8
S315080021D01B6B2A93DDED2A7AB7EEE77A9FED466BFD
S315080021E036EE477B9FED466B27EE067B8DED1C7B17
S315080021F09DED1C0B09F01CFBB0EE408B9DED1C0BF6
S3150800220009F0D6FAB0EE407BB0EE471BB0EE480BAD
S3150800221009F07EFB8DED1C0B9DED086B9DED147B87
S3150800222036EE475B9DED066B9DED127B36EE477BE2
S31508002230B0EE471BB0EE450B09F06AFB8DED1A0BA5
S315080022409DED1A6B9DED1C7B36EE477B8DED287B4D
S315080022509DED287B9FED2C6BB4EEC67BF1EE10FA54
S3150800226007DD9DED287B9FED2A6B37EE467B8DEDCE
S31508002270287B9DED287B9FED286BB4EEC67BF1EE9F
S3150800228010FA07D59DED287B9FED216B37EE067B6F
S315080022908DED287B9DED280B09F0CAFAB0EE407B40
S315080022A09FED1F6B27EE067BDDED2B6AB7EEE66A20
S315080022B0B0EE461BB0EE470B09F02AFB8DED180B66
S315080022C09DED187B9FED186B27EE066B9FED0E5B59
S315080022D086EE057BF7EEC77B184BC3ED007AA1E0C7
S315080022E04FF000032793059B93F83430012B27D131
S315080022F0059B9B6B279326E0000000000080564054
S31508002300916B50A246DF913F44174154FB21094087
S3150800231044174154FB21194044174154FB2109C075
S31508002320000000C0F528DC3F000000000080664081
S31508002330000000000000C842CDCC4C3FB414002475
S31508002340059B1B6B2793DDED277AB7EEE77A9FEDA2
S315080023505C6B36EE477B9FED5C6B27EE067B8DED5F
S31508002360207B9DED200B09F063FAB0EE408B9DEDC6
S31508002370200B09F01DFAB0EE407BB0EE471BB0EE1D
S31508002380480B09F0C5FA8DED200B9DED0C6B9DED04
S31508002390147B36EE475B9DED0A6B9DED127B36EEA0
S315080023A0477BB0EE471BB0EE450B09F0B1FA8DED51
S315080023B01E0B9DED1E6B9DED207B36EE477B8DED4E
S315080023C0247B9DED247B9FED426BB4EEC67BF1EE3C
S315080023D010FA07DD9DED247B9FED3F6B37EE467BBC
S315080023E08DED247B9DED247B9FED3D6BB4EEC67B86
S315080023F0F1EE10FA07D59DED247B9FED376B37EE8E
S31508002400067B8DED247B9DED247B9FED376B27EEB8
S31508002410066B9FED2F5B86EE057BF7EEC77B344B8D
S31508002420C3ED007A324BD3ED007AF1EE677A304B82
S31508002430C3ED007A2E4BD3ED007AB3EE0E7AF4EEA6
S31508002440C77AF1EE10FA03DD294B2A4A1A600CE026
S31508002450274BD3ED007ABBEE0E7AF4EEC77AF1EE8F
S3150800246010FA02D5224B244A1A60214BD3ED007A82
S31508002470B0EE670AFEF7B4FE204B1793B3EE040AD4
S31508002480FFF7CEF8FFF7CCFC0146DDED2B7AB7EE69
S31508002490E75A174BD3ED007AB7EEE77ADDED176A00
S315080024A0B7EEE66A8DED026B8DED007B53EC152BCE
S315080024B013480AF015FD2DB0BDEC028B5DF804FB40
S315080024C00000000000805640916B50A246DF913F05
S315080024D044174154FB21094044174154FB21194034
S315080024E044174154FB2109C00000000000806640E3
S315080024F0B41400240000F0410000F0C10000A0411F
S31508002500804A0108000000000000000000000000EA
S3150800251008B5022005F06CFD0346002B01D1002307
S3150800252000E00123184608BD000000000000000076
S3150800253008B5084B1B78002B09D0064B00221A70E9
S3150800254005F05EFC0346002B01D1012300E00023C1
S31508002550184608BDE8140124000000000000000029
S3150800256000B583B00190019B054A184611464823D9
S315080025701A46FEF7F5F9019803B05DF804FB00BFAB
S31508002580F014012400000000000000000000000014
S3150800259000B585B0039002910192019900230022AB
S315080025A0029804F045FB019B184605B05DF804FB4C
S315080025B000B585B001900E4B1B6803930C4B1A6847
S315080025C0019B13440B4A934207D90AF029FC034698
S315080025D00C221A604FF0FF3306E0054B1A68019B80
S315080025E01344034A1360039B184605B05DF804FBC1
S315080025F0680000240000022400000000000000001B
S3150800260000BF704700000000000000000000000046
S3150800261082B00023019300230093002301930CE06A
S315080026200023009302E0009B01330093009BB3F55F
S31508002630803FF8D3019B01330193019BFF2BEFD910
S3150800264000BF00BF02B07047000000000000000095
S3150800265010B5DAB05AACA4F5AA7420605AA8A0F549
S31508002660AC7001605AA9A1F5AE710A605AAAA2F522
S31508002670B0721360002359930023ADF8623100232A
S31508002680ADF860315AABA3F5AC731868FEF708FAD3
S3150800269003461BB2ADF85E310023ADF85C3100236A
S315080026A0ADF85A319D4B1B78032B40F0C1819B4BEB
S315080026B01B699A4A926810469847984BDC68974B6C
S315080026C09868BDF85A311AB293B201339BB21BB25D
S315080026D0ADF85A3192B25AABA3F5AA731B6800211A
S315080026E0A0475AABA3F5AC731B6859935AABA3F52D
S315080026F0AC731868FEF7D4F903461BB2ADF85E3121
S31508002700864B5B881A46854B9B7992FBF3F31BB283
S31508002710ADF85C3100BF599B5A1C599293F90030A9
S31508002720002BF8D10023ADF860311CE0599B013B22
S315080027305993599B93F900302F2B04D0599B93F941
S3150800274000305C2B06D1BDF860319BB201339BB2D9
S31508002750ADF86031BDF85E311BB29BB2013B9BB24E
S315080027601BB2ADF85E31BDF860319BB2012B04D8BF
S31508002770BDF85E311BB2002BD8DABDF85E311BB24C
S31508002780002B09DB599B0133599316AB599A6449B7
S3150800279018460AF015FC11E0BDF860319BB2002B13
S315080027A006D116AB599A5F4918460AF009FC05E0A6
S315080027B016AB599A5A4918460AF002FC0023ADF896
S315080027C062316BE00023ADF8603135E016AB184690
S315080027D0FEF766F903469BB21A46BDF860319BB20E
S315080027E01946BDF862319BB2BDF85C0100B200FB28
S315080027F003F30B449A4229DBBDF860319BB21A46B3
S31508002800BDF862319BB2BDF85C1109B201FB03F356
S315080028101344BDF8602192B211465AAAA2F58872ED
S31508002820D2565AABA3F5A8735A54BDF860319BB279
S3150800283001339BB2ADF86031BDF860319BB21A46E0
S31508002840BDF85C311BB29A42C0DB00E000BFBDF8A0
S3150800285060319BB21A465AABA3F5A8730021995466
S315080028602E4BDC682D4B98682C4BDB799AB2BDF859
S315080028705A3119B28BB201339BB21BB2ADF85A3139
S315080028808BB212FB03F39AB206AB0021A047BDF840
S3150800289062319BB201339BB2ADF86231BDF8623149
S315080028A09BB21C4616AB1846FEF7FAF80346BDF867
S315080028B05C2112B2B3FBF2F301339C4282D35AABCA
S315080028C0A3F5AE7316A81A6817490AF079FB134BD5
S315080028D0DC68124B9868114BDB799AB2BDF85A310D
S315080028E019B28BB201339BB21BB2ADF85A318BB217
S315080028F012FB03F39AB216AB0021A0475AABA3F515
S31508002900B0731B68002B00F0CA800023ADF8623153
S3150800291079E00023ADF8603143E000BFB814002425
S31508002920B04A0108BC4A0108CC4A01085AABA3F5CB
S31508002930B0731868FEF7B4F803469BB21A46BDF89A
S3150800294060319BB21946BDF862319BB2BDF85C0195
S3150800295000B200FB03F30B449A422CDBBDF860314E
S315080029609BB21A46BDF862319BB2BDF85C1109B23A
S3150800297001FB03F313441A465AABA3F5B0731B685D
S315080029801344BDF8602192B293F900105AABA3F52F
S31508002990A8739954BDF860319BB201339BB2ADF868
S315080029A06031BDF860319BB21A46BDF85C311BB286
S315080029B09A42BBDB00E000BFBDF860319BB21A4605
S315080029C05AABA3F5A87300219954364BDC68354BEE
S315080029D09868344BDB799AB2BDF85A3119B28BB282
S315080029E001339BB21BB2ADF85A318BB212FB03F31B
S315080029F09AB206AB0021A047BDF862319BB20133FB
S31508002A009BB2ADF86231BDF862319BB21C465AAB37
S31508002A10A3F5B0731868FEF743F80346BDF85C21C2
S31508002A2012B2B3FBF2F301339C42FFF472AF36E005
S31508002A3016AB4FF48072002118460AF0F9F9194BC3
S31508002A40DB685AAAA2F5AA72106898475AABA3F58A
S31508002A50B0731B68002B11D05AABA3F5AE735AAAF4
S31508002A60A2F5AC7216A85AA9A1F5B0710968009129
S31508002A701B6812680C490AF0A3FA0BE05AABA3F5D7
S31508002A80AE735AAAA2F5AC7216A81B681268074953
S31508002A900AF096FA034BDB6816AA1046984700BF59
S31508002AA05AB010BDB8140024D84A0108F44A0108DF
S31508002AB000B585B00292019303468DF80F300B4698
S31508002AC08DF80E309DF80E30002B24D19DF80F306E
S31508002AD0012B19D0022B20D1164B1B78002B00D0C6
S31508002AE0FEE7144B1B780133DAB2124B1A7002F068
S31508002AF0E7FEFFF785FD029B069A01990E48FFF748
S31508002B00A7FDFFF785FDF6E7029B069A01990B4894
S31508002B10FFF79EFD02E000BF00E000BF9DF80E3003
S31508002B20002B0CBF01230023DBB2184605B05DF865
S31508002B3004FB00BFCC1400240C4B01081C4B0108F5
S31508002B4000B583B0019000916A46012301990448B3
S31508002B5000F066FA009B184603B05DF804FB00BF58
S31508002B6054000024000000000000000000000000DF
S31508002B7082B00190019B002B0CD0019B5B7C03F07B
S31508002B800103DBB2002B07D0019A537C43F01003F4
S31508002B90537402E000BF00E000BF00BF02B07047F8
S31508002BA02DE9F04F89B003904FF000024FF0000373
S31508002BB0CDE90623039B002B57D0039B5B7C03F0D0
S31508002BC00103DBB2002B52D0039B5B7C03F010039E
S31508002BD0DBB2002B4DD1039B5A68039B1B68D31AA3
S31508002BE00593039B5B7CC3F3C003DBB28DF81330FC
S31508002BF0039A537C43F008035374039B5B7C03F0EE
S31508002C002003DBB2002B06D0059B00229A4693468A
S31508002C10CDE906AB1EE0039B9A68039BDB68D31AD3
S31508002C20002298469146CDE90689059B00221C4656
S31508002C301546DDE90623A61845EB0307059B002282
S31508002C4000930192DDE9002330463946FDF7B0FCD2
S31508002C50CDE906239DF8133003F00103D9B2039A90
S31508002C60537C61F3C303537404E000BF02E000BF62
S31508002C7000E000BF069B184609B0BDE8F08F00BF0C
S31508002C8000B587B00190009101238DF81730019B9C
S31508002C90002B03D102238DF8173081E0019B5B7C62
S31508002CA003F00103DBB2002B03D103238DF81730A1
S31508002CB076E0019B5B7C03F00803DBB2002B03D0B4
S31508002CC004238DF817306BE0019B5B7C03F002034D
S31508002CD0DBB2002B03D005238DF8173060E0019A8C
S31508002CE0537C43F002035374019B5B7C03F010038F
S31508002CF0DBB2002B11D0019B1A68019B9A60019BDD
S31508002D001A68019BDA60019A537C6FF34513537472
S31508002D10019A537C6FF304135374019B5B7C03F095
S31508002D202003DBB2002B08D006238DF81730019A52
S31508002D30537C6FF34103537432E0019B9B68049301
S31508002D40019BDB6803930498019B1B7C1A466B4620
S31508002D501946FDF705FE019B1B7C1A46049B134486
S31508002D600493019B5B68049A9A4202D1019B1B68F3
S31508002D700493049A039B9A420CBF01230023D9B2F9
S31508002D80019A537C61F345135374019B049A9A6024
S31508002D90019A537C6FF34103537400238DF817305F
S31508002DA09DF81730184607B05DF804FB00000000D0
S31508002DB000B58BB003900291019201238DF827305C
S31508002DC0039B002B09D0029B002B06D0019B002BEE
S31508002DD003D0019B1B68002B03D102238DF82730F3
S31508002DE013E1019B1B680893019B00221A60039B51
S31508002DF05B7C03F00103DBB2002B03D103238DF8C0
S31508002E00273002E1039B5B7C03F00803DBB2002B4F
S31508002E1003D004238DF82730F7E0039B5B7C03F08F
S31508002E200203DBB2002B03D005238DF82730ECE034
S31508002E30039A537C43F002035374039B5B7C03F0B1
S31508002E401003DBB2002B11D0039B1A68039B9A6010
S31508002E50039B1A68039BDA60039A537C6FF3451346
S31508002E605374039A537C6FF304135374039B5B7C6C
S31508002E7003F02003DBB2002B08D006238DF8273099
S31508002E80039A537C6FF341035374BEE0039B9B681C
S31508002E900793039BDB68059300230693059A079B14
S31508002EA09A422BD9059A079BD31A0693039B1B7C38
S31508002EB01A46069BB3FBF2F3089A9A4209D9039B72
S31508002EC01B7C1A46069BB3FBF2F3089307238DF87F
S31508002ED027300798039B1B7C1A46089B02FB03F3C3
S31508002EE01A460299FDF73CFD039B1B7C1A46089B74
S31508002EF002FB03F3079A134407935DE0039B5A68A2
S31508002F00079BD31A0693039B1B7C1A46069BB3FBA7
S31508002F10F2F3089A9A4214D80798039B1B7C1A4620
S31508002F20089B02FB03F31A460299FDF719FD039B5A
S31508002F301B7C1A46089B02FB03F3079A1344079364
S31508002F403AE0079B069A02991846FDF709FD029A88
S31508002F50069B13440293039B1B7C1A46089B03FBA0
S31508002F6002F2069BD31A0693039B1B68059AD31A8B
S31508002F70069A9A4214D9039B1A68059BD21A069B8D
S31508002F801344039A127CB3FBF2F3089AD31A0893F4
S31508002F90039B1B68059AD31A069307238DF82730D7
S31508002FA0039B1B68069A02991846FDF7D9FC039BF2
S31508002FB01B68069A13440793039B5B68079A9A4211
S31508002FC002D1039B1B680793079A059B9A420CBF7D
S31508002FD001230023D9B2039A537C61F34513537432
S31508002FE0039B079A9A60039A537C6FF341035374C1
S31508002FF0019B089A1A609DF82730012B02D09DF88C
S31508003000273000E000238DF827309DF82730184632
S315080030100BB05DF804FB00BF0000000000000000D4
S3150800302000B58BB00390029101928DF8033001230D
S315080030308DF82730039B002B06D0019B002B03D06D
S31508003040019B1B68002B03D102238DF8273012E160
S31508003050019B1B680893019B00221A60039B5B7CFB
S3150800306003F00103DBB2002B03D103238DF82730CD
S3150800307001E1039B5B7C03F01003DBB2002B03D05A
S315080030800A238DF82730F6E0039B5B7C03F00803E0
S31508003090DBB2002B03D008238DF82730EBE0039B27
S315080030A05B7C03F00403DBB2002B03D009238DF805
S315080030B02730E0E0039A537C43F004035374039BE0
S315080030C0DB680793039B9B68059300230693079A7F
S315080030D0059B9A420FD1039B5B7C03F02003DBB26E
S315080030E0002B08D10A238DF82730039A537C6FF3F7
S315080030F082035374BFE0079A059B9A422ED2059A1B
S31508003100079BD31A0693039B1B7C1A46069BB3FBA5
S31508003110F2F3089A9A4209D9039B1B7C1A46069B26
S31508003120B3FBF2F308930B238DF82730029B002B91
S315080031300AD00799039B1B7C1A46089B02FB03F3DC
S315080031401A460298FDF70CFC039B1B7C1A46089B43
S3150800315002FB03F3079A1344079366E0039B5A6836
S31508003160079BD31A0693039B1B7C1A46069BB3FB45
S31508003170F2F3089A9A4217D8029B002B0AD00799AD
S31508003180039B1B7C1A46089B02FB03F31A4602980C
S31508003190FDF7E6FB039B1B7C1A46089B02FB03F321
S315080031A0079A1344079340E0029B002B05D0079B20
S315080031B0069A19460298FDF7D3FB029A069B134412
S315080031C00293039B1B7C1A46089B03FB02F2069B91
S315080031D0D31A0693039B1B68059AD31A069A9A4232
S315080031E014D9039B1A68059BD21A069B1344039AA3
S315080031F0127CB3FBF2F3089AD31A0893039B1B6855
S31508003200059AD31A06930B238DF82730029B002BB9
S3150800321006D0039B1B68069A19460298FDF7A0FB81
S31508003220039B1B68069A134407939DF80330002BEB
S315080032300FD0039B5B68079A9A4202D1039B1B68CF
S315080032400793039A537C6FF345135374039B079AAA
S31508003250DA60039A537C6FF382035374019B089ACE
S315080032601A609DF82730012B02D09DF8273000E020
S3150800327000238DF827309DF8273018460BB05DF8E7
S3150800328004FB00BF00000000000000000000000072
S3150800329086B00390019200930B468DF80B300123FC
S315080032A08DF81730039B002B05D0019B002B02D00D
S315080032B0009B002B03D102238DF817301DE0039BDA
S315080032C03E225A74019A039B1A60039B1A68009B54
S315080032D01A44039B5A60039B1A68039B9A60039BD4
S315080032E01A68039BDA60039B9DF80B201A74039BEC
S315080032F001225A7400238DF817309DF817301846A6
S3150800330006B0704700000000000000000000000042
S3150800331000B585B0039002910192094809F048FE6C
S315080033200399084809F0DCFD0299074809F0D8FD19
S31508003330019B002BF1D00199044809F0D1FDECE777
S31508003340304B01084C4B0108584B0108684B0108E3
S3150800335000B585B00190019B002B04D10022EB211A
S315080033602348FFF7D5FF00238DF80F30002302937B
S31508003370019B002B36D0019B93F900302D2B06D1EB
S3150800338001238DF80F30019B0133019318E0019B4F
S3150800339093F900302B2B13D1019B013301930FE0D6
S315080033A0029A13469B0013445B001A46019B93F945
S315080033B00030DBB2303B13440293019B0133019387
S315080033C0019B93F900302F2B04DD019B93F9003004
S315080033D0392BE5DD9DF80F30002B04D0029B5B42AC
S315080033E0029300E000BF029B184605B05DF804FB97
S315080033F0784B0108000000000000000000000000F3
S3150800340000B58BB00190019B002B05D1002240F23C
S3150800341027215948FFF77CFF00238DF827304FF006
S3150800342000024FF00003CDE906234FF000024FF0EB
S315080034300003CDE904234FF00002504BCDE90223E7
S31508003440019B002B00F08A80019B93F900302D2BFD
S3150800345006D101238DF82730019B013301931EE025
S31508003460019B93F900302B2B19D1019B0133019352
S3150800347015E09DED067BB2EE046B27EE066B019B0D
S3150800348093F90030DBB2303B07EE903AB8EEE77BB3
S3150800349036EE077B8DED067B019B01330193019B7D
S315080034A093F900302F2B04DD019B93F90030392B5B
S315080034B0DFDD019B93F900302E2B3CD1019B0133B4
S315080034C001931DE09DED047BB2EE046B27EE066BBF
S315080034D0019B93F90030DBB2303B07EE903AB8EE29
S315080034E0E77B36EE077B8DED047B9DED027BB2EE26
S315080034F0046B27EE067B8DED027B019B013301935E
S31508003500019B93F900302F2B0DDD019B93F90030B9
S31508003510392B08DC9DED027B9FED156BB4EEC67B5F
S31508003520F1EE10FACED49DED045B9DED026B85EEAF
S31508003530067B8DED047B9DED066B9DED047B36EEDB
S31508003540077B8DED067B9DF82730002B07D09DED78
S31508003550067BB1EE477B8DED067B00E000BFDDE91B
S31508003560062343EC172BB0EE470B0BB05DF804FBB4
S315080035700000000065CDCD41784B01080000F03F02
S3150800358000B587B00190019B002B05D1002240F2BF
S31508003590BD213A48FFF7BCFE0198FDF781FA059070
S315080035A00023049300238DF80F3000238DF80E3086
S315080035B0019B002B5BD09DF80E30002B3DD0019B64
S315080035C093F90030602B0CDD019B93F90030662BD4
S315080035D007DC019B93F90030DBB2573B8DF80F30BF
S315080035E022E0019B93F90030402B0CDD019B93F9F7
S315080035F00030462B07DC019B93F90030DBB2373BE2
S315080036008DF80F3010E0019B93F900302F2B2FDD3A
S31508003610019B93F90030392B2ADC019B93F9003082
S31508003620DBB2303B8DF80F30049B1A019DF80F3042
S3150800363003F00F031343049310E0019B93F9003042
S31508003640302B0BD1019B013393F90030782B05D130
S31508003650019B0133019301238DF80E30019B013341
S315080036600193059B5A1E0592002BA1D100E000BFCD
S31508003670049B184607B05DF804FB00BF784B0108A9
S3150800368008B5174B5B68174A934227D0144B4FF47B
S3150800369080321A60134A124B5A60124B03F5803374
S315080036A00F4A93600E4B0022DA600F4B00221A7005
S315080036B00B4B1B681A4600210A4809F0B9FB094A50
S315080036C04FF6F87313441A46054B1A61044B1B69E7
S315080036D0044A1A60024B1B69024A5A6000BF08BDB9
S315080036E0D0140024E8140024E41400240000000088
S315080036F088B00190002307930023069300230593BF
S31508003700002304930023039353E0019B0A2B28BF4D
S315080037100A230793079B019AD31A0193284B1B6820
S315080037205B6A0493264B1B685B6A0393049A039BA4
S315080037309A42F3D1079B4FF47A7203FB02F2049B79
S3150800374013440693069A13091E49A1FB0313DB09C2
S315080037504CF2503101FB03F3D31A0593184B1B683F
S315080037605B6A0493164B1B685B6A0393049A039B74
S315080037709A42F3D1069B4CF24F32934209D9049BE5
S3150800378046F2A7129342E9D8049A059B9A42E5D9CC
S315080037900FE0059A4CF250339B1A642B05D8049B0C
S315080037A046F2A7129342D9D803E0049A059B9A4297
S315080037B0D4D9019B002BA8D100BF00BF08B0704721
S315080037C00C640124C55A7C0A0000000000000000B1
S315080037D000B583B09523ADF806304CF24F33ADF8FB
S315080037E00430194807F0D4FA0021174807F0E0FA20
S315080037F00021154807F0F4FA0121134807F008FBE1
S315080038000021114807F01CFB00210F4807F030FB88
S3150800381001210D4807F044FB02210B4807F058FB2D
S31508003820BDF806301946084807F07AFBBDF804309B
S315080038301946054807F064FB034807F091FB00BFEB
S3150800384003B05DF804FB00BF0C640124000000000F
S3150800385000B585B0034600918DF8073001238DF831
S315080038600F300023ADF80C309DF807203949134670
S315080038705B0013449B000B4408331B68002B0BD1D9
S3150800388000224921344802F07BFF0346002B03D06F
S3150800389021238DF80F3057E0009B002B0BD1002217
S315080038A051212D4802F06CFF0346002B03D0242338
S315080038B08DF80F3048E09DF80720264913465B002F
S315080038C013449B000B4408331B68012B12D19DF847
S315080038D00720204913465B0013449B000B441B68D2
S315080038E01B685B6A1BB2002B00DA03339B10ADF82A
S315080038F00C3022E09DF80720164913465B00134456
S315080039009B000B441B681B685B6AADF80C309DF87E
S315080039100720104913465B0013449B000B440633EB
S315080039201B88184601F014F90346002B05D1BDF88B
S315080039300C305B429BB2ADF80C30009BBDF80C20F6
S315080039401A8000238DF80F309DF80F30184605B001
S315080039505DF804FB6C000024C04B01080000000061
S3150800396000B585B003468DF8073001238DF80F3072
S315080039709DF80720154913465B0013449B000B442A
S3150800398008331B68002B0BD100227E21104802F059
S31508003990F7FE0346002B03D021238DF80F300EE0E7
S315080039A09DF80720094913465B0013449B000B4406
S315080039B01B681B6800225A6200238DF80F309DF899
S315080039C00F30184605B05DF804FB00BF6C000024F4
S315080039D0C04B0108000000000000000000000000C5
S315080039E000B587B00292019303468DF80F300B4657
S315080039F08DF80E3001238DF817309DF80F3004210D
S31508003A00184602F0CDFE0346002B0BD00022C52136
S31508003A10AC4802F0B5FE0346002B03D025238DF8EB
S31508003A20173049E19DF80F20A74913465B00134458
S31508003A309B000B4408331B68002B0BD00022CE21B9
S31508003A40A04802F09DFE0346002B03D020238DF8E4
S31508003A50173031E19DF80F20029B1B0C03F00F0372
S31508003A609A420BD00022D521964802F089FE0346D9
S31508003A70002B03D022238DF817301DE19DF80F2067
S31508003A80019B1B0C03F00F039A420BD00022DC218A
S31508003A908C4802F075FE0346002B03D023238DF8CD
S31508003AA0173009E1029B9BB29DF80F20C3F30B0365
S31508003AB098B2854913465B0013449B000B440433B4
S31508003AC002461A80019B9BB29DF80F20C3F30B0395
S31508003AD098B27D4913465B0013449B000B4406339A
S31508003AE002461A809DF80F209DF80E107648134658
S31508003AF05B0013449B000344083319609DF80F20AC
S31508003B00714913465B0013449B000B441B68012252
S31508003B109A609DF80F206C4913465B0013449B007E
S31508003B200B441B684FF6FF72DA609DF80F20664952
S31508003B3013465B0013449B000B441A68137C43F03E
S31508003B40300313749DF80F205F4913465B00134436
S31508003B509B000B4404331888029B1B0BDBB203F053
S31508003B600F03DBB21A46132101F0BAF89DF80E309E
S31508003B70012B14D19DF80F20534913465B001344BB
S31508003B809B000B4406331888019B1B0BDBB203F022
S31508003B900F03DBB21A46132101F0A2F80EE09DF8D6
S31508003BA00F20494913465B0013449B000B44063318
S31508003BB01B8801220121184601F012F89DF80F30E2
S31508003BC0184602F045FE9DF80F203F4913465B0054
S31508003BD013449B000B441B681B6800229A629DF8DD
S31508003BE00F20394913465B0013449B000B441B689E
S31508003BF01B684FF6FF72DA629DF80F2032491346AA
S31508003C005B0013449B000B441B681B6800225A6226
S31508003C109DF80E30012B01D1032100E057219DF8B4
S31508003C200F20294813465B0013449B0003441B6876
S31508003C301B689960002304939DF80F2022491346B8
S31508003C405B0013449B000B441B681B689B69049329
S31508003C50049B43F001030493049B43F48073049389
S31508003C609DF80F20184913465B0013449B000B442C
S31508003C701B681B68049A9A619DF80F20124913461F
S31508003C805B0013449B000B441B681B68196A9DF86C
S31508003C900F200D4813465B0013449B0003441B6822
S31508003CA01B6841F011021A629DF80F30184602F09F
S31508003CB0E7FD00238DF817309DF81730184607B032
S31508003CC05DF804FBC04B01086C00002400000000EE
S31508003CD082B00190009100BF02B07047000000005A
S31508003CE000B583B01C4B1B68D3F888201A4B1B6899
S31508003CF042F00102C3F88820174B9B8840F6FF72F2
S31508003D0093421FD000230193134B5B6A03F003030E
S31508003D10032B0CD0032B0DD8012B02D0022B03D07A
S31508003D2008E00123019305E00223019302E003233F
S31508003D30019300BF094B1B68084A5268114601984F
S31508003D40984702E0002004F0F3FDBFF34F8F00BF51
S31508003D5000BF03B05DF804FB34010024B40000245E
S31508003D6000B583B01D4B1B68D3F888201B4B1B6816
S31508003D7042F00202C3F88820184BDB8840F6FF722F
S31508003D80934220D000230193144B5B6A9B0803F0EF
S31508003D900303032B0CD0032B0DD8012B02D0022BC7
S31508003DA003D008E00123019305E00223019302E012
S31508003DB00323019300BF0A4B9B68094AD268114640
S31508003DC00198984702E0012004F0B2FDBFF34F8F37
S31508003DD000BF00BF03B05DF804FB00BF3401002438
S31508003DE0B4000024000000000000000000000000ED
S31508003DF000B583B01D4B1B68D3F888201B4B1B6886
S31508003E0042F00402C3F88820184B1B8940F6FF725B
S31508003E10934220D000230193144B5B6A1B0903F0DD
S31508003E200303032B0CD0032B0DD8012B02D0022B36
S31508003E3003D008E00123019305E00223019302E081
S31508003E400323019300BF0A4B1B69094A52691146AD
S31508003E500198984702E0022004F06AFDBFF34F8FED
S31508003E6000BF00BF03B05DF804FB00BF34010024A7
S31508003E70B40000240000000000000000000000005C
S31508003E8000B583B01D4B1B68D3F888201B4B1B68F5
S31508003E9042F00802C3F88820184B5B8940F6FF7287
S31508003EA0934220D000230193144B5B6A9B0903F0CD
S31508003EB00303032B0CD0032B0DD8012B02D0022BA6
S31508003EC003D008E00123019305E00223019302E0F1
S31508003ED00323019300BF0A4B9B69094AD26911461D
S31508003EE00198984702E0032004F022FDBFF34F8FA4
S31508003EF000BF00BF03B05DF804FB00BF3401002417
S31508003F00B4000024000000000000000000000000CB
S31508003F1000B583B01D4B1B68D3F888201B4B1B6864
S31508003F2042F01002C3F88820184B9B8940F6FF72AE
S31508003F30934220D000230193144B5B6A1B0A03F0BB
S31508003F400303032B0CD0032B0DD8012B02D0022B15
S31508003F5003D008E00123019305E00223019302E060
S31508003F600323019300BF0A4B1B6A094A526A11468A
S31508003F700198984702E0042004F0DAFCBFF34F8F5B
S31508003F8000BF00BF03B05DF804FB00BF3401002486
S31508003F90B40000240000000000000000000000003B
S31508003FA000B587B09E4BD3F8883003F02003002B6A
S31508003FB036D09C4B1B68D3F888209A4B1B6842F076
S31508003FC02002C3F88820974BDB8940F6FF7293429C
S31508003FD020D000230593934B5B6A9B0A03F00303E7
S31508003FE0032B0CD0032B0DD8012B02D0022B03D0A8
S31508003FF008E00123059305E00223059302E0032365
S31508004000059300BF884B9B6A874AD26A1146059872
S31508004010984702E0052004F08BFCBFF34F8F00BFE2
S315080040207F4BD3F8883003F04003002B36D07D4B06
S315080040301B68D3F888207B4B1B6842F04002C3F804
S315080040408820784B1B8A40F6FF72934220D00023C3
S315080040500493744B5B6A1B0B03F00303032B0CD00E
S31508004060032B0DD8012B02D0022B03D008E0012325
S31508004070049305E00223049302E00323049300BF9C
S31508004080694B1B6B684A526B11460498984702E0C5
S31508004090052004F04DFCBFF34F8F00BF604BD3F8EB
S315080040A0883003F08003002B36D05E4B1B68D3F8AC
S315080040B088205C4B1B6842F08002C3F88820594B65
S315080040C05B8A40F6FF72934220D000230393554B38
S315080040D05B6A9B0B03F00303032B0CD0032B0DD851
S315080040E0012B02D0022B03D008E00123039305E03D
S315080040F00223039302E00323039300BF4A4B9B6BFF
S31508004100494AD26B11460398984702E0052004F005
S315080041100FFCBFF34F8F00BF414BD3F8883003F431
S315080041208073002B36D03F4B1B68D3F888203D4B55
S315080041301B6842F48072C3F888203A4B9B8A40F683
S31508004140FF72934220D000230293364B5B6A1B0C06
S3150800415003F00303032B0CD0032B0DD8012B02D03D
S31508004160022B03D008E00123029305E00223029301
S3150800417002E00323029300BF2B4B1B6C2A4A526CA6
S3150800418011460298984702E0052004F0D1FBBFF3D8
S315080041904F8F00BF224BD3F8883003F40073002BEF
S315080041A036D0204B1B68D3F888201E4B1B6842F478
S315080041B00072C3F888201B4BDB8A40F6FF729342D5
S315080041C020D000230193174B5B6A9B0C03F0030373
S315080041D0032B0CD0032B0DD8012B02D0022B03D0B6
S315080041E008E00123019305E00223019302E003237B
S315080041F0019300BF0C4B9B6C0B4AD26C114601987D
S31508004200984702E0052004F093FBBFF34F8F00BFE9
S31508004210BFF34F8F00BF00BF07B05DF804FB00BFB8
S315080042200004004234010024B40000240000000009
S3150800423000B587B0974BD3F8883003F48063002B1A
S3150800424036D0954B1B68D3F88820934B1B6842F4ED
S315080042508062C3F88820904B1B8B40F6FF7293420E
S3150800426020D0002305938C4B5B6A1B0D03F00303D8
S31508004270032B0CD0032B0DD8012B02D0022B03D015
S3150800428008E00123059305E00223059302E00323D2
S31508004290059300BF814B1B6D804A526D11460598E8
S315080042A0984702E0062004F043FBBFF34F8F00BF98
S315080042B0784BD3F8883003F40063002B36D0764B5E
S315080042C01B68D3F88820744B1B6842F40062C3F855
S315080042D08820714B5B8B40F6FF72934220D00023F7
S315080042E004936D4B5B6A9B0D03F00303032B0CD001
S315080042F0032B0DD8012B02D0022B03D008E0012393
S31508004300049305E00223049302E00323049300BF09
S31508004310624B9B6D614AD26D11460498984702E03C
S31508004320062004F005FBBFF34F8F00BF594BD3F8A7
S31508004330883003F48053002B36D0574B1B68D3F8CC
S315080043408820554B1B6842F48052C3F88820524B8C
S315080043509B8B40F6FF72934220D0002303934E4B6B
S315080043605B6A1B0E03F00303032B0CD0032B0DD83B
S31508004370012B02D0022B03D008E00123039305E0AA
S315080043800223039302E00323039300BF434B1B6EF0
S31508004390424A526E11460398984702E0062004F0F6
S315080043A0C7FABFF34F8F00BF3A4BD3F8883003F4F0
S315080043B00053002B36D0384B1B68D3F88820364B71
S315080043C01B6842F40052C3F88820334BDB8B40F657
S315080043D0FF72934220D0002302932F4B5B6A9B0EF9
S315080043E003F00303032B0CD0032B0DD8012B02D0AB
S315080043F0022B03D008E00123029305E0022302936F
S3150800440002E00323029300BF244B9B6E234AD26E1D
S3150800441011460298984702E0062004F089FABFF38D
S315080044204F8F00BF1B4BD3F8883003F48043002B13
S315080044303CD0194B1B68D3F88820174B1B6842F4ED
S315080044408042C3F88820144B1B8C40F6FF729342B7
S3150800445026D000230193104B5B6A1B0F03F003035E
S31508004460032B0CD0032B0DD8012B02D0022B03D023
S3150800447008E00123019305E00223019302E00323E8
S31508004480019300BF054B1B6F044A526F11460198F2
S31508004490984708E00004004234010024B4000024D0
S315080044A0062004F045FABFF34F8F00BF214BD3F81F
S315080044B0883003F40043002B34D01F4B1B68D3F815
S315080044C088201D4B1B6842F40042C3F888201A4B0B
S315080044D05B8C40F6FF7293421ED000230093164B66
S315080044E05B6A9B0F032B0CD0032B0DD8012B02D034
S315080044F0022B03D008E00123009305E00223009372
S3150800450002E00323009300BF0C4B9B6F0B4AD26F4C
S3150800451011460098984702E0062004F009FABFF30E
S315080045204F8F00BFBFF34F8F00BF00BF07B05DF8C6
S3150800453004FB00BF0004004234010024B400002438
S3150800454008B505F0BDFD024805F0CAFD00BF08BD67
S3150800455008450124000000000000000000000000DB
S3150800456000B585B003460A46ADF8063013468DF801
S315080045700530BDF806301B099BB28DF80F30BDF823
S315080045800630DBB203F00F038DF80E309DF80F30BE
S31508004590184604F095FA0290029B002B14D0029B51
S315080045A01A689DF80E305B00194603238B40DB43DF
S315080045B01A409DF8053003F003039DF80E104900D4
S315080045C08B401A43029B1A6000BF05B05DF804FBD6
S315080045D000B585B003460A46ADF8063013468DF891
S315080045E00530BDF806301B099BB28DF80F30BDF8B3
S315080045F00630DBB203F00F038DF80E309DF80F304E
S31508004600184604F05DFA0290029B002B13D0029B19
S315080046105A689DF80E30012101FA03F3DB431A406C
S315080046209DF8053003F001019DF80E3001FA03F3F9
S315080046301A43029B5A6000BF05B05DF804FB00BF31
S3150800464000B585B003460A46ADF8063013468DF820
S315080046500530BDF806301B099BB28DF80F30BDF842
S315080046600630DBB203F00F038DF80E309DF80F30DD
S31508004670184604F025FA0290029B002B14D0029BE0
S315080046809A689DF80E305B00194603238B40DB437E
S315080046901A409DF8053003F003039DF80E104900F3
S315080046A08B401A43029B9A6000BF05B05DF804FB75
S315080046B000B585B003460A46ADF8063013468DF8B0
S315080046C00530BDF806301B099BB28DF80F30BDF8D2
S315080046D00630DBB203F00F038DF80E309DF80F306D
S315080046E0184604F0EDF90290029B002B14D0029BA9
S315080046F0DA689DF80E305B00194603238B40DB43CE
S315080047001A409DF8053003F003039DF80E10490082
S315080047108B401A43029BDA6000BF05B05DF804FBC4
S3150800472000B585B003460A46ADF8063013468DF83F
S315080047300530BDF806301B099BB28DF80F30BDF861
S315080047400630DBB203F00F038DF80E309DF80F30FC
S31508004750184604F0B5F90290029B002B30D09DF85C
S315080047600E30072B15D8029B1A6A9DF80E309B004F
S3150800477019460F238B40DB431A409DF8053003F09A
S315080047800F039DF80E1089008B401A43029B1A628C
S3150800479016E0029B5A6A9DF80E30083B9B001946A4
S315080047A00F238B40DB431A409DF8053003F00F03B7
S315080047B09DF80E10083989008B401A43029B5A62ED
S315080047C000BF05B05DF804FB000000000000000013
S315080047D000B585B003460A46ADF8063013468DF88F
S315080047E00530BDF806301B099BB28DF80F30BDF8B1
S315080047F00630DBB203F00F038DF80E309DF80F304C
S31508004800184604F05DF90290029B002B14D0029B17
S315080048109A6A9DF80E305B00194603238B40DB43EA
S315080048201A409DF8053003F003039DF80E10490061
S315080048308B401A43029B9A6200BF05B05DF804FBE1
S3150800484000B585B003460A46ADF8063013468DF81E
S315080048500530BDF806301B099BB28DF80F30BDF840
S315080048600630DBB203F00F038DF80E309DF80F30DB
S31508004870184604F025F90290029B002B13D0029BE0
S31508004880DA6A9DF80E30012101FA03F3DB431A4078
S315080048909DF8053003F001019DF80E3001FA03F387
S315080048A01A43029BDA6200BF05B05DF804FB00BF3D
S315080048B000B585B003460A46ADF8063013468DF8AE
S315080048C00530BDF806301B099BB28DF80F30BDF8D0
S315080048D00630DBB203F00F038DF80E309DF80F306B
S315080048E0184604F0EDF80290029B002B13D0029BA9
S315080048F01A6B9DF80E30012101FA03F3DB431A40C7
S315080049009DF8053003F001019DF80E3001FA03F316
S315080049101A43029B1A6300BF05B05DF804FB00BF8B
S3150800492000B585B003460A46ADF8063013468DF83D
S315080049300530BDF806301B099BB28DF80F30BDF85F
S315080049400630DBB203F00F038DF80E309DF80F30FA
S31508004950184604F0B5F80290029B002B13D0029B70
S315080049605A6B9DF80E30012101FA03F3DB431A4016
S315080049709DF8053003F001019DF80E3001FA03F3A6
S315080049801A43029B5A6300BF05B05DF804FB00BFDB
S3150800499000B583B003460091ADF80630009BDBB244
S315080049A003F00303DAB2BDF8063011461846FFF7DE
S315080049B0D7FD009B9B0803F00103DAB2BDF8063069
S315080049C011461846FFF704FE009BDB0803F00303B5
S315080049D0DAB2BDF8063011461846FFF731FE009BDD
S315080049E05B0903F00303DAB2BDF806301146184630
S315080049F0FFF75EFE009BDB09DBB203F00F03DAB2BA
S31508004A00BDF8063011461846FFF78AFE009BDB0AFA
S31508004A1003F00303DAB2BDF8063011461846FFF76D
S31508004A20D7FE009B5B0B03F00103DAB2BDF8063034
S31508004A3011461846FFF704FF009B9B0B03F0010382
S31508004A40DAB2BDF8063011461846FFF731FF009B6B
S31508004A50DB0B03F00103DAB2BDF80630114618463F
S31508004A60FFF75EFF00BF03B05DF804FB000000001F
S31508004A7000B587B0059004910392049B0093059BAB
S31508004A80039A00210220FEF713F8FEE70000000053
S31508004A9000B585B003460A46ADF8063013468DF8CC
S31508004AA0053001238DF80F30BDF8063040F6FF7249
S31508004AB0934207D1002284212248FFF7D9FF0346F3
S31508004AC0002B38D1BDF806305B099BB28DF80E3045
S31508004AD0BDF80630DBB203F01F038DF80D309DF8E4
S31508004AE00530002B11D09DF80E30174A52F82330A6
S31508004AF099699DF80D3001229A409DF80E301248AA
S31508004B0050F823300A439A6111E09DF80E300E4A98
S31508004B1052F8233099699DF80D304FF480329A4047
S31508004B209DF80E30084850F823300A439A6100234E
S31508004B308DF80F3000E000BF9DF80F30184605B01D
S31508004B405DF804FBF04B0108C052010800000000A4
S31508004B5000B585B00346ADF8063000238DF80F3052
S31508004B60BDF8063040F6FF72934207D10022A32112
S31508004B701648FFF77DFF0346002B20D1BDF8063007
S31508004B805B099BB28DF80E30BDF80630DBB203F038
S31508004B901F038DF80D309DF80E300D4A52F823305C
S31508004BA01B699DF80D20012101FA02F21340002B22
S31508004BB014BF01230023DBB28DF80F3000E000BFDD
S31508004BC09DF80F30184605B05DF804FBF04B010858
S31508004BD0C0520108000000000000000000000000AC
S31508004BE000B585B00346ADF806300B468DF805309E
S31508004BF013468DF8043001238DF80F30BDF80630C2
S31508004C0040F6FF72934208D100224FF48F71304864
S31508004C10FFF72EFF0346002B52D19DF805301B09DE
S31508004C20DBB2002B19D0BDF806305B099BB2012B0D
S31508004C3005D0BDF806305B099BB2022B0DD1BDF835
S31508004C400630212B09D0BDF80630452B05D00022A9
S31508004C5040F229111E48FFF70BFF9DF8053003F0B7
S31508004C600F029DF805301B09DBB29B001344194A55
S31508004C7052F823300293BDF806305B101BB203F4DA
S31508004C80FE631AB2BDF9063003F01F031BB21343C5
S31508004C901BB29BB202991846FFF77AFE9DF80530BB
S31508004CA01B09DBB2002B07D09DF80420BDF806309F
S31508004CB011461846FFF7ECFE00238DF80F3000E08A
S31508004CC000BF9DF80F30184605B05DF804FB00BF1D
S31508004CD0F04B0108A0520108000000000000000087
S31508004CE000B585B00346ADF806300B468DF805309D
S31508004CF013468DF8043001238DF80F30BDF80630C1
S31508004D0040F6FF72934208D1002240F24D112C481A
S31508004D10FFF7AEFE0346002B4AD19DF805301B0966
S31508004D20DBB2002B19D0BDF806305B099BB2012B0C
S31508004D3005D0BDF806305B099BB2022B0DD1BDF834
S31508004D400630212B09D0BDF80630452B05D00022A8
S31508004D504FF4AC711A48FFF78BFE9DF8053003F047
S31508004D600F029DF805301B09DBB29B001344154A58
S31508004D7052F8233002939DF80430DB01029A13435C
S31508004D800293BDF806305B101BB203F4FE631AB239
S31508004D90BDF9063003F01F031BB213431BB29BB2C7
S31508004DA002991846FFF7F4FD00238DF80F3000E04E
S31508004DB000BF9DF80F30184605B05DF804FB00BF2C
S31508004DC0F04B0108A0520108000000000000000096
S31508004DD000B587B0059004910392049B0093059B48
S31508004DE0039A00210220FDF763FEFEE7000000009B
S31508004DF010B584B00190009101238DF80F30019B06
S31508004E001B0CDBB203F00F038DF80E30019B1B0D54
S31508004E10DBB203F00F038DF80D309DF80E2097498D
S31508004E201346DB009B1ADB000B4428331B68002B58
S31508004E300BD1002278219248FFF7CAFF0346002BC0
S31508004E4003D021238DF80F3013E19DF80E209DF82D
S31508004E500D108A481346DB009B1A9B000B445B0027
S31508004E6003449B8840F6FF7293420AD100228021B0
S31508004E708348FFF7ADFF0346002B02D023238DF8A6
S31508004E800F30009B42F2107293420BD90022852103
S31508004E907B48FFF79DFF0346002B03D029238DF897
S31508004EA00F30E6E09DF80E2074491346DB009B1A86
S31508004EB0DB000B442C331B68ADF80A30009B42F22A
S31508004EC04762934238D9BDF80A305B089CB29DF810
S31508004ED00E206A491346DB009B1ADB000B44186850
S31508004EE09DF80D20674BA3FB021399080B465B0040
S31508004EF00B445B00D31ADBB22246DB0103449C3326
S31508004F001A609DF80E205D491346DB009B1ADB00EC
S31508004F100B4418689DF80D205A4BA3FB02139908F9
S31508004F200B465B000B445B00D31ADBB2DB01034480
S31508004F30A43300221A6099E0009BC82B39D89DF843
S31508004F400E204E491346DB009B1ADB000B441868FB
S31508004F509DF80D204B4BA3FB021399080B465B00EB
S31508004F600B445B00D31ADBB2BDF80A20DB0103440D
S31508004F709C331A60BDF80A305B089CB29DF80E2077
S31508004F803E491346DB009B1ADB000B4418689DF864
S31508004F900D203C4BA3FB021399080B465B000B4400
S31508004FA05B00D31ADBB22246DB010344A4331A6042
S31508004FB05CE0BDF80A305B089BB207EE903AB8EEA3
S31508004FC0E77A009B07EE903AF8EE676A9FED2E6A3D
S31508004FD0C6EE867A67EE277AFCEEE77A17EE903AFF
S31508004FE0ADF80830BDF80A305B089BB21A46BDF822
S31508004FF00830D41A9DF80E2020491346DB009B1A68
S31508005000DB000B4418689DF80D201E4BA3FB02130A
S3150800501099080B465B000B445B00D31ADBB22246A9
S31508005020DB0103449C331A60BDF80A305B089BB267
S315080050301A46BDF80830D4189DF80E200F491346B5
S31508005040DB009B1ADB000B4418689DF80D200D4BFE
S31508005050A3FB021399080B465B000B445B00D31AAB
S31508005060DBB22246DB010344A4331A6000238DF821
S315080050700F309DF80F30184604B010BD60010024AB
S31508005080204C0108ABAAAAAA00401C460000000052
S3150800509010B584B00190009101238DF80F30019B63
S315080050A01B0CDBB203F00F038DF80E30019B1B0DB2
S315080050B0DBB203F00F038DF80D309DF80E20694919
S315080050C01346DB009B1ADB000B4428331B68002BB6
S315080050D00CD1002240F217216348FFF779FE0346F8
S315080050E0002B03D021238DF80F30E9E19DF80E201F
S315080050F05C491346DB009B1ADB000B4430331B88E4
S31508005100C3F30B039BB21A469DF80D3042FA03F31C
S3150800511003F00103002B0BD0002240F21F21524856
S31508005120FFF756FE0346002B02D022238DF80F30D8
S31508005130009B42F2107293420CD9002240F22621BB
S315080051404948FFF745FE0346002B03D029238DF86F
S315080051500F30B5E19DF80E2042491346DB009B1A35
S31508005160DB000B442C331B68ADF80A30009B42F277
S315080051704762934238D9BDF80A305B089CB29DF85D
S315080051800E2038491346DB009B1ADB000B441868CF
S315080051909DF80D20354BA3FB021399080B465B00BF
S315080051A00B445B00D31ADBB22246DB0103449C3373
S315080051B01A609DF80E202B491346DB009B1ADB006C
S315080051C00B4418689DF80D20284BA3FB0213990879
S315080051D00B465B000B445B00D31ADBB2DB010344CE
S315080051E0A43300221A60A2E0009BC82B42D89DF87F
S315080051F00E201C491346DB009B1ADB000B4418687B
S315080052009DF80D20194BA3FB021399080B465B006A
S315080052100B445B00D31ADBB2BDF80A20DB0103445A
S315080052209C331A60BDF80A305B089CB29DF80E20C4
S315080052300C491346DB009B1ADB000B4418689DF8E3
S315080052400D200A4BA3FB021399080B465B000B447F
S315080052505B00D31ADBB22246DB010344A4331A608F
S3150800526065E000BF60010024204C0108ABAAAAAA89
S3150800527000401C46BDF80A305B089BB207EE903A20
S31508005280B8EEE77A009B07EE903AF8EE676A1FEDEC
S31508005290086AC6EE867A67EE277AFCEEE77A17EE94
S315080052A0903AADF80830BDF80A305B089BB21A464A
S315080052B0BDF80830D41A9DF80E2084491346DB0041
S315080052C09B1ADB000B4418689DF80D20804BA3FB46
S315080052D0021399080B465B000B445B00D31ADBB23A
S315080052E02246DB0103449C331A60BDF80A305B088A
S315080052F09BB21A46BDF80830D4189DF80E2073499B
S315080053001346DB009B1ADB000B4418689DF80D203A
S315080053106F4BA3FB021399080B465B000B445B001B
S31508005320D31ADBB22246DB010344A4331A609DF884
S315080053300E2066491346DB009B1ADB000B4430330C
S315080053401B88C3F30B039BB21AB29DF80D300121DB
S3150800535001FA03F31BB213431BB29DF80E20C3F3E5
S315080053600B0399B259481346DB009B1ADB0003442A
S3150800537003F13002138861F30B031380019B9BB280
S315080053809DF80E209DF80D10C3F30B039CB24F48F1
S315080053901346DB009B1A9B000B445B000344224622
S315080053A09A80019B9BB2C3F30B0398B2019B1B0B1C
S315080053B0DBB203F00F03DBB21A461221FFF790FCAB
S315080053C09DF80E2041491346DB009B1ADB000B446F
S315080053D018689DF80D203E4BA3FB021399080B464F
S315080053E05B000B445B00D31ADCB22346DB010344A3
S315080053F0BC3318689DF80E2034491346DB009B1A07
S31508005400DB000B441968234640F00802DB010B4415
S31508005410BC331A609DF80E202C491346DB009B1AF4
S31508005420DB000B4418689DF80D20294BA3FB0213DB
S3150800543099080B465B000B445B00D31ADCB2234683
S31508005440DB010344C03318689DF80E201F49134634
S31508005450DB009B1ADB000B441968234640F0100258
S31508005460DB010B44C0331A609DF80E20174913461A
S31508005470DB009B1ADB000B441B68D3F894039DF8EA
S315080054800D20134BA3FB021399080B465B000B4434
S315080054905B00D31ADBB25B00012202FA03F31C4657
S315080054A09DF80E2009491346DB009B1ADB000B44C6
S315080054B01B6840EA0402C3F8942300238DF80F30D2
S315080054C09DF80F30184604B010BD00BF60010024D7
S315080054D0ABAAAAAA00000000000000000000000015
S315080054E02DE9F04F8BB0034604918DF81730012350
S315080054F08DF827309DF81720B7491346DB009B1A0D
S31508005500DB000B4428331B68002B0CD0002240F22A
S315080055106121B248FFF75CFC0346002B03D0202329
S315080055208DF8273051E1049B002B0CD100224FF453
